:04000000E8EF00F035
:100008004B82FACF03F0FBCF04F0E9CF05F0EACF3B
:1000180006F0E1CF07F0E2CF08F0D9CF09F0DACF48
:100028000AF0F3CF0BF0F4CF0CF0F6CF0DF0F7CFCA
:100038000EF0F8CF0FF0F5CF10F04BC011F04CC018
:1000480012F04DC013F04EC014F09EA42EEF00F035
:1000580030EF00F037EF00F09E94000ECF6E000EE8
:10006800CE6E37EF00F0F2A43CEF00F03EEF00F068
:10007800C2EF00F0F2949E940001EB4BEC2B47503A
:100088000001EB1908E148500001EC19D8A44FEF22
:1000980000F051EF00F05CEF00F0000E0001EC6F93
:1000A800000EEB6FE5C0E7F0E6C0E8F05CEF00F0AB
:1000B80081B061EF00F063EF00F08BEF00F0D890B3
:1000C8000001EB35F66E0001EC35F76E670EF6268B
:1000D800060EF7220900F5CF01F00900F5CF02F06E
:1000E8000001E75101260001E8510222D8900136AB
:1000F8000236010E0124F66E060E0220F76E090084
:10010800F5CFBEFF0A00F5CFBFFFBCEF00F081B20C
:1001180090EF00F092EF00F0BCEF00F0D8900001F3
:10012800EB35F66E0001EC35F76E5B0EF626060E23
:10013800F7220900F5CF01F00900F5CF02F0000120
:10014800E75101260001E8510222D8900136023613
:10015800010E0124F66E060E0220F76E0900F5CF97
:10016800BEFF0A00F5CFBFFFBCEF00F0BCEF00F008
:10017800E9C0D6FFEAC0D7FFC2EF00F014C04EF0C6
:1001880013C04DF012C04CF011C04BF010C0F5FF79
:100198000FC0F8FF0EC0F7FF0DC0F6FF0CC0F4FF4C
:1001A8000BC0F3FF0AC0DAFF09C0D9FF08C0E2FF9D
:1001B80007C0E1FF06C0EAFF05C0E9FF04C0FBFF76
:0C01C80003C0FAFF4B921100C8EF14F0C6
:10060000007077BC70696A7264CD5E7B597654B8AD
:100610004F3E4B06470943463FB93B5F38353539B6
:1006200032672FBE2C3B2ADC27A02583238521A3FC
:100630001FDC1D301C9B1A1C19B3175F161E15EE0C
:1006400013D012C111C210D20FEE0E180E4D0D8E26
:100650000CDA0B2F0B8F0AF7096809000007000C52
:10066000000F000C000700000007000C0010000C39
:1006700000070001000A006400E8031027286E75D7
:0B0680006C6C2900257300257500003C
:10068C00FC0ED36ED08EF28EF28C030E936E000E97
:10069C00816EF19E000E956E000E836E9268030EB5
:1006AC00946E000E826E9BEC15F00DEC16F00BECBC
:1006BC0013F0000E0001EC6F000EEB6FD8900001F0
:1006CC00EB35F66E0001EC35F76E670EF626060E6E
:1006DC00F7220900F5CFB0F00900F5CFB1F0000119
:1006EC00E7510001B0270001E8510001B123D89077
:1006FC000001B037B137010E0001B025F66E060EC1
:10070C00B121F76E0900F5CFBEFF0A00F5CFBFFF90
:10071C0090EF03F0BAC05FF1BBC060F1BCC061F1F7
:10072C0083EC16F0000E0001E66F000EE56F6FEC27
:10073C0015F015C0E5F016C0E6F0E5C015F0E6C002
:10074C0016F0000E186E230E176E95EC12F015C0F5
:10075C00E5F016C0E6F078EC16F0000E0101696FBA
:10076C00000E686F43EC15F015C068F116C069F106
:10077C0068C115F069C116F0000E186E180E176ED0
:10078C0084EC14F015C068F116C069F168C115F05D
:10079C0069C116F0000E186E0A0E176E41EC16F0B9
:1007AC0015C068F116C069F11E0E01016825010122
:1007BC00686F000E010169210101696F68C1E3F0E6
:1007CC0069C1E4F0010E0101596F81A0F0EF03F053
:1007DC00F2EF03F0FEEF03F081A2F7EF03F0F9EF75
:1007EC0003F0FEEF03F0000E0101596FFEEF03F072
:1007FC00010159B102D0CD9001D0CD80010E010183
:10080C005A6F81A00CEF04F00EEF04F01AEF04F015
:10081C0081A213EF04F015EF04F01AEF04F0000EB0
:10082C0001015A6F1AEF04F001015AB102D0D59EA2
:10083C0001D0D58E000E2F6E000E306E700E316E04
:10084C00420E326EB2C027F0B3C028F0B4C029F00B
:10085C00B5C02AF0E3C015F0E4C016F0000E16BEC9
:10086C00FF0E176E186E010EEEEC10F015C023F093
:10087C0016C024F017C025F018C026F0B1EC0AF011
:10088C0023C033F024C034F025C035F026C036F038
:10089C005CEC0DF02FC04DF130C04EF131C04FF17A
:1008AC0032C050F1000E0001866F000E876F900E63
:1008BC00886F410E896FBDC0B0F0BEC0B1F00001B1
:1008CC00D890B037B1370001D890B037B137B0C03D
:1008DC0015F0B1C016F0000E16BEFF0E176E186E96
:1008EC00010EEEEC10F015C033F016C034F017C04A
:1008FC0035F018C036F0B6C027F0B7C028F0B8C035
:10090C0029F0B9C02AF04DC123F04EC124F04FC1DB
:10091C0025F050C126F0B1EC0AF023C02FF024C012
:10092C0030F025C031F026C032F05CEC0DF02FC059
:10093C007EF030C07FF031C080F032C081F0C4EC6A
:10094C0015F07EC082F07FC083F080C084F081C03F
:10095C0085F031EC07F082C051F183C052F184C0B4
:10096C0053F185C054F151C1A8F052C1A9F053C143
:10097C00AAF054C1ABF0DCEC13F0A8C055F1A9C03F
:10098C0056F1AAC057F1ABC058F155C196F056C1FB
:10099C0097F057C198F058C199F0E1EC11F096C05E
:1009AC00E9F097C0EAF081A0DEEF04F0E0EF04F08C
:1009BC0024EF05F081A2E5EF04F0E7EF04F024EF5B
:1009CC0005F0E9C0D6FFEAC0D7FF000E826EE5C085
:1009DC00E7F0E6C0E8F0000E0001EC6F000EEB6FE4
:1009EC00D8900001EB35F66E0001EC35F76E670E12
:1009FC00F626060EF7220900F5CFB0F00900F5CF68
:100A0C00B1F00001E7510001B0270001E8510001ED
:100A1C00B123D8900001B037B137010E0001B025D9
:100A2C00F66E060EB121F76E0900F5CFBEFF0A0077
:100A3C00F5CFBFFFBD92BD8224EF05F0480E216EAD
:100A4C00010E226E870E236E060E246E68C125F0F1
:100A5C0069C126F0C3EC0FF00001E6BF43EF05F0CF
:100A6C000001E65108E10C0E0001E55DD8B041EF44
:100A7C0005F043EF05F05FEF05F05F0E216E010E00
:100A8C00226E840E236E060E246EE5C015F0E6C0B1
:100A9C0016F0000E186E030E176E41EC16F0BF0E1A
:100AAC001524256E000E1620266EC3EC0FF0B2EF47
:100ABC0005F00001E6BF70EF05F00001E65108E11A
:100ACC00180E0001E55DD8B06EEF05F070EF05F083
:100ADC0090EF05F05F0E216E010E226E840E236ED8
:100AEC00060E246EF40E0001E525156EFF0E0001B6
:100AFC00E621166E000E186E030E176E41EC16F002
:100B0C00240E1524256E010E1620266EC3EC0FF054
:100B1C00B2EF05F05F0E216E010E226E840E236E75
:100B2C00060E246EE80E0001E525156EFF0E000181
:100B3C00E621166E000E186E030E176E41EC16F0C1
:100B4C00000E1524256E010E1620266EC3EC0FF038
:100B5C00B2EF05F0B2EF05F0020E67EC16F0000EE6
:100B6C0001015C6F000E5B6F01015CBFC9EF05F00A
:100B7C0001015C510AE1060E01015B5DD8A0C9EFD1
:100B8C0005F0CBEF05F0CFEF05F0E8EF05F0E8EF5F
:100B9C0005F0140E67EC16F001015B4B5C2B0101A8
:100BAC005CBFE4EF05F001015C510AE1060E0101A6
:100BBC005B5DD8A0E4EF05F0E6EF05F0CFEF05F0B4
:100BCC00E8EF05F0000E0101636F000E626F01018A
:100BDC0063BFFCEF05F0010163510AE1030E010153
:100BEC00625DD8A0FCEF05F0FEEF05F002EF06F019
:100BFC0023EF06F023EF06F05F0E01016225D96E9C
:100C0C00010E01016321DA6EDF5056EC16F0010182
:100C1C00624B632B010163BF1FEF06F001016351AF
:100C2C000AE1030E0101625DD8A01FEF06F021EF6F
:100C3C0006F002EF06F023EF06F0C00E67EC16F09C
:100C4C00000E01015E6F000E5D6F01015EBF3AEF99
:100C5C0006F001015E510AE1060E01015D5DD8A0AE
:100C6C003AEF06F03CEF06F040EF06F059EF06F0D5
:100C7C0059EF06F0140E67EC16F001015D4B5E2B7C
:100C8C0001015EBF55EF06F001015E510AE1060E4F
:100C9C0001015D5DD8A055EF06F057EF06F040EF6F
:100CAC0006F059EF06F00101695108E10A0E010145
:100CBC00685DD8B064EF06F066EF06F070EF06F0F2
:100CCC00000E0101676F020E666F5D0E0101616F10
:100CDC008BEF06F0010169510AE10A0E0101685D12
:100CEC00D8A07BEF06F07DEF06F084EF06F0000E47
:100CFC000101676F030E666F8BEF06F0000E0101AA
:100D0C00676F010E666F8BEF06F0000E0101656FC9
:100D1C00000E646F11EF07F0020E0101661901015C
:100D2C006711D8A49CEF06F09EEF06F0B4EF06F026
:100D3C00010165BFADEF06F0010165510AE1030E3B
:100D4C000101645DD8A0ADEF06F0AFEF06F0B4EF93
:100D5C0006F0200E56EC16F0CFEF06F0020E010155
:100D6C00661901016711D8A4BEEF06F0C0EF06F0BA
:100D7C00CFEF06F0480E01016425D96E010E01017A
:100D8C006521DA6EDF5056EC16F0CFEF06F0CFEFA0
:100D9C0006F0030E0101661901016711D8A4D9EF01
:100DAC0006F0DBEF06F0F1EF06F0010165BFEAEFAC
:100DBC0006F0010165510AE1040E0101645DD8A041
:100DCC00EAEF06F0ECEF06F0F1EF06F0200E56EC31
:100DDC0016F00CEF07F0030E010166190101671103
:100DEC00D8A4FBEF06F0FDEF06F00CEF07F0480E71
:100DFC0001016425D96E010E01016521DA6EDF5007
:100E0C0056EC16F00CEF07F00CEF07F00101644BF9
:100E1C00652B11EF07F0010166510101645D0101C1
:100E2C006551800A0001B06F01016751800A000111
:100E3C00B059D8A024EF07F026EF07F092EF06F098
:100E4C0028EF07F0020E67EC16F090EF03F090EF2E
:100E5C0003F0E8EF00F000018551800B0001926F68
:100E6C000001855185250001946F0001000184AFBC
:100E7C0042EF07F044EF07F048EF07F000019481D0
:100E8C0048EF07F0000194510001D8B450EF07F07F
:100E9C0052EF07F06DEF07F000019429D8A459EF39
:100EAC0007F05BEF07F066EF07F0000E0001826FB2
:100EBC00000E836F000E846F000E856F66EF07F0D7
:100ECC000001848F000E0001856F78EF07F0000E93
:100EDC000001826F000E836F000E846F000E856F11
:100EEC0078EF07F000018951800B0001936F00012E
:100EFC00925100019319D8B486EF07F088EF07F0F0
:100F0C008CEF07F00001928D8CEF07F000018951F6
:100F1C0089250001936F0001000188AF98EF07F05D
:100F2C009AEF07F09EEF07F0000193819EEF07F018
:100F3C00000193510001D8B4A6EF07F0A8EF07F019
:100F4C00C3EF07F000019329D8A4AFEF07F0B1EF7E
:100F5C0007F0BCEF07F0000E0001866F000E876FE4
:100F6C00000E886F000E896FBCEF07F00001888FB0
:100F7C00000E0001896FCEEF07F0000E0001866FA6
:100F8C00000E876F000E886F000E896FCEEF07F092
:100F9C00000194510001935DD8B0D7EF07F0D9EF61
:100FAC0007F007EF08F00001000192ADE0EF07F049
:100FBC00E2EF07F0E7EF07F0800E0001921BE7EF7E
:100FCC0007F094C095F093C094F095C093F082C054
:100FDC0095F086C082F095C086F083C095F087C0EE
:100FEC0083F095C087F084C095F088C084F095C0DC
:100FFC0088F085C095F089C085F095C089F007EF21
:10100C0008F0000E0001956F0001945100018A6FE9
:10101C008B6B00018A1F8B1F8A4B8B2B000193510A
:10102C0000018C6F8D6B00018A5100018C2700012F
:10103C008B5100018D2300018DBF30EF08F00001B2
:10104C008D510AE11A0E00018C5DD8A030EF08F02A
:10105C0032EF08F07FEF08F000018251000183119C
:10106C000001841100018511D8A43FEF08F042EF74
:10107C0008F0010E43EF08F0000E0001956F000E12
:10108C000001826F000E836F000E846F000E856F5F
:10109C0093C094F08CEF08F07FEF08F00001000192
:1010AC0095A15BEF08F05DEF08F065EF08F000012B
:1010BC00D890953101090001956F6AEF08F0000195
:1010CC00D89095336AEF08F00001000182A171EF0E
:1010DC0008F073EF08F077EF08F00001958F77EFC9
:1010EC0008F0000185358533843383338233000166
:1010FC00942B000193510001945DD8A088EF08F067
:10110C008AEF08F054EF08F08CEF08F000010001B2
:10111C0092BD93EF08F095EF08F0F6EF08F00001A0
:10112C0094510001D8A49DEF08F09FEF08F0ACEFAC
:10113C0008F0000E0001826F000E836F000E846FAA
:10114C00000E856FB0EF0AF0B0EF0AF00001865187
:10115C00000182270001875100018323000188517F
:10116C000001842300018951000185230001000145
:10117C0085A1C3EF08F0C5EF08F0E6EF09F0000118
:10118C00000195A1CCEF08F0CEEF08F0D8EF08F0F5
:10119C000001D89095330001955101090001956F1C
:1011AC00DDEF08F00001D8909533DDEF08F0000179
:1011BC00000182A1E4EF08F0E6EF08F0EAEF08F096
:1011CC000001958FEAEF08F00001853585338433F3
:1011DC00833382330001942BE6EF09F0E6EF09F03C
:1011EC00000186510001825D000187510001835985
:1011FC00000188510001845900018551800A0001C9
:10120C008A6F00018951800A00018A59D8B011EF08
:10121C0009F013EF09F06BEF09F082C08AF083C07C
:10122C008BF084C08CF085C08DF000018A1F8B1F61
:10123C008C1F8D1F8A2B000E8B238C238D2300017A
:10124C00865100018A2500018E6F00018751000133
:10125C008B2100018F6F0001885100018C2100014E
:10126C00906F0001895100018D210001916FFF0EDB
:10127C0000018E250001826FFF0E00018F210001FD
:10128C00836FFF0E000190210001846FFF0E00019F
:10129C0091210001856F800E0001921B0001956D5C
:1012AC00000195510001D8A45EEF09F060EF09F040
:1012BC007BEF09F0010E00018227000E83238423AB
:1012CC0085237BEF09F07BEF09F0000186510001CB
:1012DC00825F000187510001835B0001885100018E
:1012EC00845B000189510001855B00018251000182
:1012FC0083110001841100018511D8A488EF09F035
:10130C008AEF09F0D9EF09F0000195510001D8A43A
:10131C0092EF09F094EF09F0D9EF09F0000E0001FB
:10132C00826F000E836F000E846F000E856FB0EF1E
:10133C000AF0B0EF0AF0D9EF09F00001D89082372B
:10134C008337843785370001000195AFB0EF09F082
:10135C00B2EF09F0B6EF09F000018281B6EF09F0A7
:10136C000001000195A1BDEF09F0BFEF09F0C4EF3A
:10137C0009F0D88000019537C9EF09F00001D89029
:10138C009537C9EF09F0000194510001D8B4D1EFA1
:10139C0009F0D3EF09F0D9EF09F000019407D9EF68
:1013AC0009F0D9EF09F00001000184AFE0EF09F07A
:1013BC00E2EF09F0A3EF09F0E6EF09F0E6EF09F030
:1013CC00000E0001936F0001000195AFF0EF09F0E2
:1013DC00F2EF09F013EF0AF095C08AF07F0E0001CE
:1013EC008A17D8B4FCEF09F0FEEF09F003EF0AF00E
:1013FC00010E0001936F13EF0AF00001000182A1AE
:10140C000AEF0AF00CEF0AF013EF0AF0010E0001DC
:10141C00936F13EF0AF013EF0AF0000193510001E0
:10142C00D8B41BEF0AF01DEF0AF054EF0AF0010ECE
:10143C0000018227000E83238423852300010001F1
:10144C0085A12BEF0AF02DEF0AF054EF0AF082C0C1
:10145C008AF083C08BF084C08CF085C08DF00001C5
:10146C008D358D338C338B338A338AC082F08BC0AD
:10147C0083F08CC084F08DC085F000019429D8B421
:10148C004AEF0AF04CEF0AF054EF0AF00001942BEB
:10149C0054EF0AF054EF0AF054EF0AF000019429CB
:1014AC00D8B45BEF0AF05DEF0AF069EF0AF00001C7
:1014BC0094510001D8A465EF0AF067EF0AF083EFAE
:1014CC000AF069EF0AF0000E0001826F000E836FC4
:1014DC00000E846F000E856F000194510001D8A49A
:1014EC007AEF0AF07CEF0AF083EF0AF0000E0001AD
:1014FC00926F83EF0AF083EF0AF00001000194A1D0
:10150C008AEF0AF08CEF0AF090EF0AF00001848F5A
:10151C0094EF0AF00001849F94EF0AF00001D89038
:10152C0094310001856F0001000192AFA0EF0AF029
:10153C00A2EF0AF0A6EF0AF00001858FA6EF0AF0E1
:10154C0082C082F083C083F084C084F085C085F0B3
:10155C00B0EF0AF012002650800B0001606F26508D
:10156C0026240001666F25AEBEEF0AF0C0EF0AF02C
:10157C00C4EF0AF000016681C4EF0AF00001665165
:10158C000001D8B4CCEF0AF0CEEF0AF0E4EF0AF089
:10159C0000016629D8A4D5EF0AF0D7EF0AF0E1EFE5
:1015AC000AF0000E236E000E246E000E256E000E47
:1015BC00266EE1EF0AF0258EEEEF0AF0000E236E98
:1015CC00000E246E000E256E000E266EEEEF0AF055
:1015DC002A50800B0001601B2A502A240001616FE5
:1015EC0029AEFBEF0AF0FDEF0AF001EF0BF0000162
:1015FC00618101EF0BF0000161510001D8B409EFDA
:10160C000BF00BEF0BF021EF0BF000016129D8A4CC
:10161C0012EF0BF014EF0BF01EEF0BF0000E276E19
:10162C00000E286E000E296E000E2A6E1EEF0BF0B7
:10163C00298E29EF0BF0000E276E000E286E000E7F
:10164C00296E000E2A6E000161510001D8B431EFF1
:10165C000BF033EF0BF03FEF0BF000016651000184
:10166C00D8A43BEF0BF03DEF0BF04BEF0BF03FEF43
:10167C000BF0000E236E000E246E000E256E000E75
:10168C00266E5BEF0DF05BEF0DF029502302F3CFCC
:10169C006BF0F4CF6CF000016B510001626F636B67
:1016AC00646B656B00016C510001676F686B696B53
:1016BC006A6B28502402F3CF6BF0F4CF6CF000016E
:1016CC006B5100016227000E632364236523000124
:1016DC006C5100016727000E682369236A23275089
:1016EC002502F3CF6BF0F4CF6CF000016B510001CD
:1016FC006227000E63236423652300016C510001F3
:10170C006727000E682369236A2364C065F063C0F1
:10171C0064F062C063F00001626B27502402F3CFC7
:10172C006BF0F4CF6CF000016B51000162270001EB
:10173C006C5100016323000E00016423000E0001B4
:10174C00652328502302F3CF6BF0F4CF6CF000012B
:10175C006B510001622700016C5100016323000EE4
:10176C0000016423000E0001652364C065F063C0B2
:10177C0064F062C063F00001626B27502302F3CF68
:10178C006BF0F4CF6CF000016B510001622700018B
:10179C006C5100016323000E00016423000E000154
:1017AC00652329502402F3CF6BF0F4CF6CF00001C9
:1017BC006B510001672700016C5100016823000E7A
:1017CC0000016923000E00016A2328502502F3CF83
:1017DC006BF0F4CF6CF000016B5100016727000136
:1017EC006C5100016823000E00016923000E0001FA
:1017FC006A2329502502F3CF6BF0F4CF6CF0000173
:10180C006B512B6E00016C512C6E2D6A2E6A2DC003
:10181C002EF02CC02DF02BC02CF02B6A2B5000017D
:10182C0067272C50000168232D50000169232E508E
:10183C0000016A2362C02BF063C02CF064C02DF051
:10184C0065C02EF0190E30EF0CF0D8902E322D32E0
:10185C002C322B32E82E2BEF0CF02B50000167278B
:10186C002C50000168232D50000169232E500001DB
:10187C006A2364C065F063C064F062C063F0000169
:10188C00626B0001615166C02BF02C6A2B26000E96
:10189C002C22820E2B2400016B6FFF0E2C200001DA
:1018AC006C6F76EF0CF00001D890673768376937AA
:1018BC006A370001000165AF66EF0CF068EF0CF0C1
:1018CC006AEF0CF0000167810001D8906237633732
:1018DC006437653700016B07D8A06C0776EF0CF006
:1018EC000001000169AF7DEF0CF07FEF0CF059EFB8
:1018FC000CF081EF0CF0000E0001616F0001000193
:10190C0065AF8BEF0CF08DEF0CF0BDEF0CF0FF0E14
:10191C00000162152B6EFF0E000163152C6EFF0E7D
:10192C00000164152D6E7F0E000165152E6E2B5077
:10193C002C102D102E10D8B4A6EF0CF0A8EF0CF034
:10194C00ADEF0CF0010E0001616FBDEF0CF000016A
:10195C00000167A1B4EF0CF0B6EF0CF0BDEF0CF08A
:10196C00010E0001616FBDEF0CF0BDEF0CF000013A
:10197C0061510001D8B4C5EF0CF0C7EF0CF0F3EFD8
:10198C000CF0010E00016727000E682369236A23FF
:10199C00000100016AA1D5EF0CF0D7EF0CF0F3EFCA
:1019AC000CF067C02BF068C02CF069C02DF06AC039
:1019BC002EF02E342E322D322C322B322BC067F0DF
:1019CC002CC068F02DC069F02EC06AF000016B4B82
:1019DC006C2BF3EF0CF0F3EF0CF000016CBF01EF8C
:1019EC000DF000016C5109E100016B29D8A001EF49
:1019FC000DF003EF0DF00EEF0DF0000E0001676F10
:101A0C00000E686F800E696F7F0E6A6F4DEF0DF0E0
:101A1C0000016CBF1EEF0DF000016C5107E10001DD
:101A2C006B05D8B01CEF0DF01EEF0DF02CEF0DF088
:101A3C00000E0001676F000E686F000E696F000EDC
:101A4C006A6F000E0001606F4DEF0DF06BC066F019
:101A5C00FF0E00016717FF0E68177F0E6917000E47
:101A6C006A170001000166A13EEF0DF040EF0DF08A
:101A7C0044EF0DF00001698F44EF0DF00001D89098
:101A8C00663100016A6F4DEF0DF04DEF0DF0000166
:101A9C00605100016A1367C023F068C024F069C06C
:101AAC0025F06AC026F05BEF0DF012003250800B6F
:101ABC000001716F3250322400017C6F31AE69EF3E
:101ACC000DF06BEF0DF06FEF0DF000017C816FEFFF
:101ADC000DF000017C510001D8B477EF0DF079EFD7
:101AEC000DF091EF0DF000017C29D8A480EF0DF0E2
:101AFC0082EF0DF08CEF0DF0000E2F6E000E306E9D
:101B0C00000E316E000E326E8CEF0DF0318E000E29
:101B1C00326E9BEF0DF0000E2F6E000E306E000E2D
:101B2C00316E000E326E9BEF0DF03650800B0001C3
:101B3C00711B3650362400017D6F35AEA8EF0DF0C9
:101B4C00AAEF0DF0AEEF0DF000017D81AEEF0DF0C0
:101B5C0000017D510001D8B4B6EF0DF0B8EF0DF0D7
:101B6C00D0EF0DF000017D29D8A4BFEF0DF0C1EF2F
:101B7C000DF0CBEF0DF0000E336E000E346E000E38
:101B8C00356E000E366ECBEF0DF0358E000E366EC8
:101B9C00DAEF0DF0000E336E000E346E000E356E63
:101BAC00000E366EDAEF0DF033503410351036105F
:101BBC00D8A4E3EF0DF0E5EF0DF0FDEF0DF0000E06
:101BCC002F6E000E306E000E316E000E326E800ED7
:101BDC0031127F0E32122FC02FF030C030F031C0D6
:101BEC0031F032C032F0C2EF0FF0C2EF0FF0000153
:101BFC007C510001D8A405EF0EF007EF0EF01BEF9F
:101C0C000EF0000E2F6E000E306E000E316E000EB8
:101C1C00326E2FC02FF030C030F031C031F032C0F6
:101C2C0032F0C2EF0FF0C2EF0FF000017D51000156
:101C3C006D6F6E6B00016D1F6E1F6D4B6E2B000177
:101C4C007C5100016F6F706B00016D5100016F27AB
:101C5C0000016E51000170237F0E00016F25000101
:101C6C00766F000E000170210001776F2FC072F0AB
:101C7C0030C073F031C074F032C075F0000E2F6EAE
:101C8C00000E306E000E316E000E326E000E000132
:101C9C00786F000E796F000E7A6F000E7B6F000E5E
:101CAC0000017D6FA6EF0EF000017D510001D8B44C
:101CBC0062EF0EF064EF0EF081EF0EF00001D890A1
:101CCC007237733774377537D8902F3630363136C4
:101CDC003236000100017BAF76EF0EF078EF0EF09C
:101CEC0079EF0EF02F800001D890783779377A375A
:101CFC007B3781EF0EF033500001725D34500001E0
:101D0C007359355000017459365000017559D8A0DB
:101D1C0092EF0EF094EF0EF0A4EF0EF000017B8D1D
:101D2C0033500001725F34500001735B3550000179
:101D3C00745B36500001755BA4EF0EF000017D2B37
:101D4C00190E00017D65ADEF0EF0AFEF0EF05AEFFE
:101D5C000EF0B1EF0EF00001725100017311000191
:101D6C00741100017511D8B4BEEF0EF0C0EF0EF077
:101D7C00E1EF0EF000017881E1EF0EF0E1EF0EF0F3
:101D8C00D8902F36303631363236000100017BAF19
:101D9C00D2EF0EF0D4EF0EF0D5EF0EF02F80000145
:101DAC00D890783779377A377B3700017607D8A007
:101DBC007707E1EF0EF031AEE6EF0EF0E8EF0EF044
:101DCC00C6EF0EF0EAEF0EF0000E00017D6F000181
:101DDC0000017BAFF4EF0EF0F6EF0EF02CEF0FF0EE
:101DEC00FF0E0001781500016D6FFF0E00017915D3
:101DFC0000016E6FFF0E00017A1500016F6F7F0EF0
:101E0C0000017B150001706F00016D5100016E1116
:101E1C0000016F1100017011D8B417EF0FF019EF1A
:101E2C000FF01EEF0FF0010E00017D6F2CEF0FF085
:101E3C002FA023EF0FF025EF0FF02CEF0FF0010E7A
:101E4C0000017D6F2CEF0FF02CEF0FF000017D5196
:101E5C000001D8B434EF0FF036EF0FF060EF0FF055
:101E6C00010E2F26000E30223122322232A041EFF9
:101E7C000FF043EF0FF060EF0FF02FC06DF030C09C
:101E8C006EF031C06FF032C070F0000170357033FD
:101E9C006F336E336D336DC02FF06EC030F06FC08A
:101EAC0031F070C032F00001764B772B60EF0FF001
:101EBC0060EF0FF0000177BF6EEF0FF0000177516C
:101ECC0009E100017629D8A06EEF0FF070EF0FF04A
:101EDC007EEF0FF0000E0001776F7669000E2F6E0B
:101EEC00000E306E000E316E000E326E7EEF0FF073
:101EFC00000177BF8EEF0FF00001775107E1000171
:101F0C007605D8B08CEF0FF08EEF0FF0A0EF0FF03E
:101F1C00000E0001776F000E766F000E2F6E000E14
:101F2C00306E000E316E000E326E000E0001716FBD
:101F3C00A0EF0FF076C07CF0000100017CA1A9EFAE
:101F4C000FF0ABEF0FF0AEEF0FF0318EB1EF0FF0F3
:101F5C00319EB1EF0FF00001D8907C31326E000150
:101F6C00715132122FC02FF030C030F031C031F02F
:101F7C0032C032F0C2EF0FF01200250E2B6E000EA5
:101F8C002C6ED0EF10F0250E2F18D8B4D0EF0FF028
:101F9C00D2EF0FF0DCEF0FF021C0D9FF22C0DAFF37
:101FAC002FC0DFFF214A222AD0EF10F0000E276E3F
:101FBC003EEF10F0E5EF10F02BC0D9FF2CC0DAFF8C
:101FCC00DECF2DF0DDCF2EF0020E2B26000E2C22B4
:101FDC002D502E10D8A4F5EF0FF0F7EF0FF01AEFED
:101FEC0010F07D0E2D6E060E2E6E1AEF10F01AEFFD
:101FFC0010F02DC0F6FF2EC0F7FFF86A21C0D9FFF4
:10200C0022C0DAFF050EF76403D00800F55005D0A6
:10201C00F6CFE1FFF7CFE2FFE750DF6E2D4A2E2A15
:10202C00214A222A1AEF10F02DC0F6FF2EC0F7FF1E
:10203C00F86A050EF76403D00800F55005D0F6CF0A
:10204C00E1FFF7CFE2FFE7500009D8A430EF10F022
:10205C0032EF10F0FFEF0FF0D0EF10F0D0EF10F0E8
:10206C00D0EF10F0C00E271256EF10F056EF10F014
:10207C0023C0F6FF24C0F7FF234A242A0800F5CF1B
:10208C002FF02F50000AD8B4E5EF10F0730AD8B433
:10209C00E2EF0FF0060AD8B438EF10F0D0EF10F0E2
:1020AC002BC0D9FF2CC0DAFFDECF28F0DDCF29F012
:1020BC00020E2B26000E2C22010E2F6E050E2F1851
:1020CC00D8A46BEF10F06DEF10F071EF10F094EFEF
:1020DC0010F094EF10F02F50020D730EF324F66EE7
:1020EC00060EF420F76E0900F550285C0900F55037
:1020FC002958D8B084EF10F086EF10F08AEF10F06A
:10210C0094EF10F094EF10F02F2A050E2F18D8A48E
:10211C0092EF10F094EF10F071EF10F02FC02AF046
:10212C00C3EF10F02A50020D730EF324F66E060E58
:10213C00F420F76E0900F5CF17F00A00F5CF18F070
:10214C0028C015F029C016F084EC14F015C01CF052
:10215C0016C01DF0000E1F6E0A0E1E6E07EC15F059
:10216C001C50300F2F6E21C0D9FF22C0DAFF2FC0B8
:10217C00DFFF214A222AC3EF10F02A062A28D8A40E
:10218C00CAEF10F0CCEF10F098EF10F0D0EF10F089
:10219C00D0EF10F023C0F6FF24C0F7FF234A242A07
:1021AC000800F5CF2FF02F50D8A4DFEF10F0E1EF9F
:1021BC0010F0C9EF0FF0E5EF10F0E5EF10F021C0D3
:1021CC00D9FF22C0DAFF000EDF6EEDEF10F0120027
:1021DC001D6E1D50D8B4F5EF10F0F7EF10F019EF9D
:1021EC0011F018BEFEEF10F0FCEF10F019EF11F02B
:1021FC0015C019F016C01AF017C01BF018C01CF04F
:10220C00191E1A1E1B1E1C1E192A000E1A221B2216
:10221C001C2219C01FF01AC020F01BC021F01CC0DA
:10222C0022F023EF11F015C01FF016C020F017C0DC
:10223C0021F018C022F023EF11F0155016101710D2
:10224C001810D8A42CEF11F02EEF11F03AEF11F07A
:10225C00000E156E000E166E000E176E000E186E28
:10226C00E0EF11F0E0EF11F0960E1E6E46EF11F05C
:10227C001E2AD8902232213220321F3246EF11F022
:10228C00000E1F14196E000E20141A6E000E21146D
:10229C001B6EFE0E22141C6E19501A101B101C10F3
:1022AC00D8A45BEF11F05DEF11F03EEF11F06DEF84
:1022BC0011F06DEF11F01E2A010E1F26000E2022C8
:1022CC0021222222D8902232213220321F32000EBB
:1022DC001F14196E000E20141A6E000E21141B6EA2
:1022EC00FF0E22141C6E19501A101B101C10D8A4AF
:1022FC0082EF11F084EF11F061EF11F090EF11F01B
:10230C0090EF11F01E06D8901F362036213622365B
:10231C0090EF11F021BE95EF11F097EF11F0A1EFB6
:10232C0011F0020E1E609DEF11F09FEF11F088EF7F
:10233C0011F0A1EF11F01EB0A6EF11F0A8EF11F003
:10234C00B0EF11F0FF0E1F16FF0E20167F0E211698
:10235C00FF0E2216D8901E321EC019F01A6A1B6A84
:10236C001C6A19C01CF01B6A1A6A196A19501F12D0
:10237C001A5020121B5021121C5022121D50D8B47E
:10238C00CAEF11F0CCEF11F0D6EF11F018BED3EF6D
:10239C0011F0D1EF11F0D6EF11F0228ED6EF11F033
:1023AC001FC015F020C016F021C017F022C018F085
:1023BC00E0EF11F01200000198359935386E385065
:1023CC00D8A4EBEF11F0EDEF11F0FAEF11F0000ED5
:1023DC000001966F000E976F000E986F000E996FAC
:1023EC0094EF12F094EF12F096C09AF097C09BF015
:1023FC0098C09CF099C09DF0200E0BEF12F00001DC
:10240C00D8909D339C339B339A33E82E05EF12F012
:10241C0000019A51376E0001988FFF0E000196173C
:10242C00FF0E9717FF0E9817000E9917960E385E31
:10243C0038BE25EF12F023EF12F04BEF12F03850AC
:10244C00800A970FD8B02DEF12F02FEF12F03EEF5D
:10245C0012F0000E0001966F000E976F000E986F31
:10246C00000E996F94EF12F094EF12F03EEF12F011
:10247C000001D8909933983397339633383E3EEF1A
:10248C0012F077EF12F077EF12F01F0E386451EF65
:10249C0012F053EF12F06BEF12F0000E0001966F7A
:1024AC00000E976F000E986F000E996F94EF12F05C
:1024BC0094EF12F06BEF12F00001D890963797372B
:1024CC009837993738066BEF12F03850D8A471EF63
:1024DC0012F073EF12F062EF12F077EF12F077EF69
:1024EC0012F03750D8B47DEF12F07FEF12F08AEF74
:1024FC0012F00001991F981F971F966D000E9723DD
:10250C00982399238AEF12F096C096F097C097F013
:10251C0098C098F099C099F094EF12F01200000E48
:10252C001A6E18BE9EEF12F09CEF12F0A6EF12F08E
:10253C00176C181ED8B0182A010E1A6EA6EF12F0DE
:10254C0016BEADEF12F0ABEF12F0B5EF12F0156C4A
:10255C00161ED8B0162A010E1A1AB5EF12F0000E7C
:10256C001C6E000E1B6E17501810D8B4C0EF12F072
:10257C00C2EF12F0F6EF12F0010E196ECCEF12F062
:10258C00D89017361836192ACCEF12F018AED1EFB6
:10259C0012F0D3EF12F0C6EF12F0D7EF12F0D7EF24
:1025AC0012F0D8901B361C361750155C1850165864
:1025BC00D8A0E3EF12F0E5EF12F0ECEF12F01750A9
:1025CC00155E1850165A1B80ECEF12F0D89018328A
:1025DC001732192ED7EF12F0F6EF12F0F6EF12F0C9
:1025EC001A50D8B4FCEF12F0FEEF12F004EF13F017
:1025FC001B6C1C1ED8B01C2A04EF13F01BC015F06A
:10260C001CC016F00AEF13F01200010E67EC16F066
:10261C00020E67EC16F0800E67EC16F0000E186ECA
:10262C00000E176E18BE24EF13F0185009E1060EB9
:10263C00175CD8A024EF13F026EF13F02AEF13F059
:10264C0045EF13F045EF13F03F0E1724D96E000E33
:10265C001820DA6EDF5056EC16F0174A182A18BEFE
:10266C0041EF13F0185009E1060E175CD8A041EFAA
:10267C0013F043EF13F02AEF13F045EF13F0C00EF5
:10268C0067EC16F0000E1A6E000E196E1ABE58EF9B
:10269C0013F01A5009E1060E195CD8A058EF13F08C
:1026AC005AEF13F05EEF13F079EF13F079EF13F0AC
:1026BC00390E1924D96E000E1A20DA6EDF5056EC42
:1026CC0016F0194A1A2A1ABE75EF13F01A5009E1BE
:1026DC00060E195CD8A075EF13F077EF13F05EEFD0
:1026EC0013F079EF13F012009EC015F09FC016F096
:1026FC00A0C017F0A1C018F0A60E196E000E1A6E2D
:10270C0039EC14F00001A7BF90EF13F08EEF13F02B
:10271C009DEF13F0000E00019E6F000E9F6F000ED8
:10272C00A06F000EA16FDBEF13F0DBEF13F00001D5
:10273C00A7510AE11D0E0001A65DD8A0A8EF13F069
:10274C00AAEF13F0B4EF13F09EC09EF09FC09FF061
:10275C00A0C0A0F0A1C0A1F0DBEF13F09EC096F0DA
:10276C009FC097F0A0C098F0A1C099F0E1EC11F0D7
:10277C0096C015F097C016F098C017F099C018F0D5
:10278C00010EEEEC10F015C0A2F016C0A3F017C0AD
:10279C00A4F018C0A5F0A2C09EF0A3C09FF0A4C0E6
:1027AC00A0F0A5C0A1F0DBEF13F01200A8C09EF0C2
:1027BC00A9C09FF0AAC0A0F0ABC0A1F07AEC13F0B6
:1027CC009EC07EF09FC07FF0A0C080F0A1C081F0C1
:1027DC00C4EC15F07EC082F07FC083F080C084F022
:1027EC0081C085F0A8C086F0A9C087F0AAC088F087
:1027FC00ABC089F031EC07F082C0ACF083C0ADF017
:10280C0084C0AEF085C0AFF0A8C082F0A9C083F040
:10281C00AAC084F0ABC085F0ACC086F0ADC087F028
:10282C00AEC088F0AFC089F031EC07F082C0A8F0E0
:10283C0083C0A9F084C0AAF085C0ABF0A8C09EF0FC
:10284C00A9C09FF0AAC0A0F0ABC0A1F07AEC13F025
:10285C009EC0A8F09FC0A9F0A0C0AAF0A1C0ABF088
:10286C0038EF14F012001550161017101810D8A4C9
:10287C0042EF14F044EF14F050EF14F019C0D9FFEC
:10288C001AC0DAFF000EDE6E000EDD6E83EF14F060
:10289C0083EF14F018507F0B1B6E1C6AD8901B36FC
:1028AC001C3619C0D9FF1AC0DAFF1BC0DEFF1CC0D2
:1028BC00DDFF17BE64EF14F068EF14F01B6A1B2ADF
:1028CC0069EF14F01B6A1B5019C0D9FF1AC0DAFF4C
:1028DC00DE12000EDD1219C0D9FF1AC0DAFF820E0B
:1028EC00DE26FF0EDD2218801882188418861888C0
:1028FC00188A189C179E83EF14F01200000E1B6EA2
:10290C00000E1A6E17501810D8B48FEF14F091EF08
:10291C0014F0C3EF14F0010E196E9BEF14F0D89065
:10292C0017361836192A9BEF14F018AEA0EF14F0D6
:10293C00A2EF14F095EF14F0A6EF14F0A6EF14F03C
:10294C00D8901A361B361750155C18501658D8A04C
:10295C00B2EF14F0B4EF14F0BBEF14F01750155E97
:10296C001850165A1A80BBEF14F0D8901832173240
:10297C00192EA6EF14F0C3EF14F01AC015F01BC0FB
:10298C0016F01200D20EF66E2B0EF76E000EF86ECD
:10299C0001EE00F010EE48F00900F5CFEEFFE55027
:1029AC00E150FAE14E0EF66E2C0EF76E000EF86E3C
:1029BC0000EEB2F010EE33F00900F5CFEEFFE5506B
:1029CC00E150FAE11C0EF66E2D0EF76E000EF86E4D
:1029DC0000EE39F010EE10F00900F5CFEEFFE550E7
:1029EC00E150FAE100EEE5F0080EEE6AE806FDE1D2
:1029FC004A6A496A4B904B92000EF86E000146EF02
:102A0C0003F01E501F10D8B40EEF15F010EF15F098
:102A1C003EEF15F0010E206E1AEF15F0D8901E3611
:102A2C001F36202A1AEF15F01FAE1FEF15F021EFFD
:102A3C0015F014EF15F025EF15F025EF15F01E50DD
:102A4C001C5C1F501D58D8A02EEF15F030EF15F060
:102A5C0036EF15F01E501C5E1F501D5A36EF15F048
:102A6C00D8901F321E32202E25EF15F03EEF15F0B8
:102A7C001CC01CF01DC01DF01200000E186E000EC4
:102A8C00176E000E1A6E000E196E000E1C6E000EE4
:102A9C001B6EC28252EF15F0C2B257EF15F059EF10
:102AAC0015F052EF15F0C3CF19F01A6AC4CF1BF012
:102ABC001C6A1B501C6E1B6A19501B24176E1A5073
:102ACC001C20186E17C015F018C016F06EEF15F01C
:102ADC001200000E186E000E176E000E1A6E000E0D
:102AEC00196E000E1C6E000E1B6EC2827EEF15F06E
:102AFC00C2B283EF15F085EF15F07EEF15F0C3CF62
:102B0C0019F01A6AC4CF1BF01C6A1B501C6E1B6A8E
:102B1C0019501B24176E1A501C20186E17C015F074
:102B2C0018C016F09AEF15F012003F0EBD16CF0E1E
:102B3C00BD16BD50F00B0209BD6ECD8ECD9CCF0ED7
:102B4C00CD16CD86CD94CD92CD90D59ED59CD59AD3
:102B5C00D598D596D550F80B0509D56EB19EB19C7C
:102B6C00B186CF0EB116B194B192B1909D849D9067
:102B7C009F849E94F29AF184F294120000017E518B
:102B8C0000017F110001801100018111D8B4D1EF37
:102B9C0015F0D3EF15F0DEEF15F0000E00017E1BE3
:102BAC00000E7F1B000E801B800E811BDEEF15F0CC
:102BBC007EC07EF07FC07FF080C080F081C081F04D
:102BCC00E8EF15F0120043342043233444342044FE
:102BDC0023344534200000000000000000000000F9
:102BEC0000000000000000000000433320432333AA
:102BFC004433204423334533204633204623334784
:102C0C003320472333413320412333423320030EF7
:102C1C00936E000E816E000E956E000E836E380E54
:102C2C0067EC16F00C0E67EC16F0010E67EC16F064
:102C3C00060E67EC16F0800E67EC16F026EF16F019
:102C4C001200000040400024744B20202040004320
:102C5C003220432332443220442332453220463240
:102C6C00204623324732204723324132204123323F
:052C7C00423220780047
:102C820015501702F3CF19F0F4CF1AF015501802AD
:102C9200F3501A2616501702F3501A2619C015F0CF
:102CA2001AC016F055EF16F01200166E16C083FF0A
:102CB200818A81988186040E156E3E0EE82EFED71B
:102CC200152EFCD7819666EF16F01200166E16C00E
:102CD20083FF819A81988186040E156E3E0EE82E3E
:102CE200FED7152EFCD7819677EF16F01200926868
:102CF200000E7E6E7E82090EC26E000EC16EAD0E99
:102D0200C06E12009268000E7E6E7E84010EC26E4C
:102D1200000EC16EAD0EC06E12002062706D3A20C0
:0A2D22006E6F74653A200100060090
:020000040020DA
:08000000FFFFFFFFFFFFFFFF00
:020000040030CA
:0E000000FF08001EFF0181FF0FC00FE00F4040
:00000001FF
